{
  "_format": "hh-sol-artifact-1",
  "contractName": "RidePriceCalculator",
  "sourceName": "contracts/RidePriceCalculator.sol",
  "abi": [
    {
      "inputs": [
        {
          "internalType": "int256",
          "name": "distance",
          "type": "int256"
        },
        {
          "internalType": "int256",
          "name": "speed",
          "type": "int256"
        }
      ],
      "name": "calculateFare",
      "outputs": [
        {
          "internalType": "uint256",
          "name": "",
          "type": "uint256"
        }
      ],
      "stateMutability": "pure",
      "type": "function"
    }
  ],
  "bytecode": "0x608060405234801561001057600080fd5b506103f5806100206000396000f3fe608060405234801561001057600080fd5b506004361061002b5760003560e01c80634fae403014610030575b600080fd5b61004a600480360381019061004591906101c7565b610060565b6040516100579190610220565b60405180910390f35b60008061007884610073856103e8610104565b61014c565b905060006100b161008b83610e10610104565b6064670de0b6b3a7640000604b6100a2919061026a565b6100ac9190610311565b610104565b6100dc866103e8670de0b6b3a7640000600f6100cd919061026a565b6100d79190610311565b610104565b6100e6919061037b565b90506100fa81670de0b6b3a764000061014c565b9250505092915050565b6000670de0b6b3a76400006002670de0b6b3a76400006101249190610311565b8385610130919061026a565b61013a919061037b565b6101449190610311565b905092915050565b60008160028361015c9190610311565b670de0b6b3a764000085610170919061026a565b61017a919061037b565b6101849190610311565b905092915050565b600080fd5b6000819050919050565b6101a481610191565b81146101af57600080fd5b50565b6000813590506101c18161019b565b92915050565b600080604083850312156101de576101dd61018c565b5b60006101ec858286016101b2565b92505060206101fd858286016101b2565b9150509250929050565b6000819050919050565b61021a81610207565b82525050565b60006020820190506102356000830184610211565b92915050565b7f4e487b7100000000000000000000000000000000000000000000000000000000600052601160045260246000fd5b600061027582610191565b915061028083610191565b925082820261028e81610191565b91507f800000000000000000000000000000000000000000000000000000000000000084146000841216156102c6576102c561023b565b5b82820584148315176102db576102da61023b565b5b5092915050565b7f4e487b7100000000000000000000000000000000000000000000000000000000600052601260045260246000fd5b600061031c82610191565b915061032783610191565b925082610337576103366102e2565b5b600160000383147f8000000000000000000000000000000000000000000000000000000000000000831416156103705761036f61023b565b5b828205905092915050565b600061038682610191565b915061039183610191565b9250828201905082811215600083121683821260008412151617156103b9576103b861023b565b5b9291505056fea2646970667358221220ebcf58ec626973cc895a1b72d419185b5cd032352a96bc0b95034c6b9ffa4c9d64736f6c63430008120033",
  "linkReferences": {},
  "deployedLinkReferences": {}
}